:020000040800F2
:1000000000000824650C0008ED0A0008F30A000847
:10001000F90A0008FF0A0008050B000800000000AC
:100020000000000000000000000000000B0B0008B2
:10003000190B000800000000270B0008350B000812
:10004000B50C0008B50C0008B50C0008B50C00088C
:10005000B50C0008B50C0008B50C0008B50C00087C
:10006000B50C0008B50C0008B50C0008B50C00086C
:10007000B50C0008B50C0008B50C0008B50C00085C
:10008000B50C0008B50C0008B50C0008B50C00084C
:10009000B50C0008B50C0008B50C0008B50C00083C
:1000A000B50C0008B50C0008B50C0008B50C00082C
:1000B000B50C0008B50C0008B50C0008B50C00081C
:1000C000B50C0008B50C0008B50C0008B50C00080C
:1000D000B50C0008B50C0008B50C0008410B000871
:1000E000B50C0008B50C000800000000B50C0008B5
:1000F000B50C0008B50C0008B50C0008B50C0008DC
:10010000B50C0008B50C0008B50C0008B50C0008CB
:10011000B50C0008B50C0008B50C0008B50C0008BB
:10012000B50C0008B50C0008B50C0008B50C0008AB
:10013000B50C0008B50C0008B50C0008B50C00089B
:1001400000000000000000000000000000000000AF
:10015000B50C0008B50C0008B50C0008B50C00087B
:10016000B50C0008B50C0008B50C0008B50C00086B
:10017000B50C0008B50C0008B50C0008B50C00085B
:10018000B50C0008B50C0008B50C0008B50C00084B
:10019000B50C0008B50C0008B50C0008B50C00083B
:1001A000B50C0008B50C0008B50C0008B50C00082B
:1001B000B50C0008B50C0008B50C0008B50C00081B
:1001C000B50C0008B50C0008B50C0008B50C00080B
:1001D000B50C0008B50C0008B50C0008B50C0008FB
:1001E000B50C0008B50C0008B50C0008B50C0008EB
:1001F000B50C0008B50C0008B50C0008B50C0008DB
:10020000B50C0008B50C0008B50C0008B50C0008CA
:10021000B50C0008B50C0008B50C0008B50C0008BA
:10022000B50C0008B50C0008B50C00080000000073
:10023000B50C0008B50C000800000000B50C000863
:10024000B50C0008B50C0008B50C0008B50C00088A
:10025000B50C0008B50C0008B50C0008B50C00087A
:10026000B50C0008B50C0008B50C0008B50C00086A
:10027000B50C0008B50C0008B50C00080000000023
:10028000B50C0008B50C0008B50C00080000000013
:0802900000000000B50C00089D
:1002980010B5054C237833B9044B13B10448AFF3B8
:1002A80000800123237010BD14000024000000000A
:1002B800A860000808B5034B1BB103490348AFF316
:1002C800008008BD0000000018000024A860000895
:1002D80053B94AB9002908BF00281CBF4FF0FF31A5
:1002E8004FF0FF3000F074B9ADF1080C6DE904CEA1
:1002F80000F006F8DDF804E0DDE9022304B07047F9
:100308002DE9F047089D04468E46002B4DD18A42C0
:10031800944669D9B2FA82F252B101FA02F3C2F1F3
:10032800200120FA01F10CFA02FC41EA030E944084
:100338004FEA1C48210CBEFBF8F61FFA8CF708FBA5
:1003480016E341EA034306FB07F199420AD91CEB7D
:10035800030306F1FF3080F01F81994240F21C81AF
:10036800023E63445B1AA4B2B3FBF8F008FB1033F7
:1003780044EA034400FB07F7A7420AD91CEB04042C
:1003880000F1FF3380F00A81A74240F207816444FC
:10039800023840EA0640E41B00261DB1D440002381
:1003A800C5E900433146BDE8F0878B4209D9002DE5
:1003B80000F0EF800026C5E9000130463146BDE86F
:1003C800F087B3FA83F6002E4AD18B4202D38242D9
:1003D80000F2F980841A61EB030301209E46002D88
:1003E800E0D0C5E9004EDDE702B9FFDEB2FA82F2DD
:1003F800002A40F09280A1EB0C014FEA1C471FFA3B
:100408008CFE0126200CB1FBF7F307FB131140EA21
:1004180001410EFB03F0884208D91CEB010103F1EE
:10042800FF3802D2884200F2CB804346091AA4B2B0
:10043800B1FBF7F007FB101144EA01440EFB00FE84
:10044800A64508D91CEB040400F1FF3102D2A645E9
:1004580000F2BB800846A4EB0E0440EA03409CE788
:10046800C6F12007B34022FA07FC4CEA030C20FA35
:1004780007F401FA06F31C43F9404FEA1C4900FA55
:1004880006F3B1FBF9F8200C1FFA8CFE09FB1811D2
:1004980040EA014108FB0EF0884202FA06F20BD945
:1004A8001CEB010108F1FF3A80F08880884240F295
:1004B8008580A8F102086144091AA4B2B1FBF9F0D9
:1004C80009FB101144EA014100FB0EFE8E4508D9D4
:1004D8001CEB010100F1FF346CD28E456AD9023859
:1004E800614440EA0840A0FB0294A1EB0E01A1423E
:1004F800C846A64656D353D05DB1B3EB080261EBAC
:100508000E0101FA07F722FA06F3F1401F43C5E985
:10051800007100263146BDE8F087C2F12003D840BB
:100528000CFA02FC21FA03F3914001434FEA1C47FD
:100538001FFA8CFEB3FBF7F007FB10360B0C43EAEF
:10054800064300FB0EF69E4204FA02F408D91CEB9F
:10055800030300F1FF382FD29E422DD9023863449D
:100568009B1B89B2B3FBF7F607FB163341EA03413D
:1005780006FB0EF38B4208D91CEB010106F1FF388C
:1005880016D28B4214D9023E6144C91A46EA004683
:1005980038E72E46284605E70646E3E61846F8E615
:1005A8004B45A9D2B9EB020864EB0C0E0138A3E75E
:1005B8004646EAE7204694E74046D1E7D0467BE73F
:1005C800023B614432E7304609E76444023842E7B7
:1005D800704700BF80B500AF00F06AFB00F024F858
:1005E80000F0D8F800F09CF900F0FEF800F04AF9A5
:1005F8004FF47A7000F0EEFB074B1B680D22074999
:10060800074803F0E7FF044B1B680D220349054820
:1006180003F0E0FFECE700BF00000024C060000822
:1006280030000024C000002480B59EB000AF07F160
:100638002C034C220021184605F02AFD07F10C0373
:1006480020220021184605F023FD022001F016FCA7
:100658000023BB604C4BDB6A4B4A23F00103D36297
:10066800494BDB6A03F00103BB60484B9B69474A6F
:1006780043F440439361454B9B6903F44043BB609B
:10068800BB6800BF414B9B6903F40053B3F5005F9F
:10069800F8D13F4BD3F8F4303D4A43F00203C2F897
:1006A800F4303B4BD3F8F43003F002037B607B68F3
:1006B80000233B60354B9B69344A43F440439361C4
:1006C800324B9B6903F440433B602F4BDB6A2E4A55
:1006D80043F00103D3622C4BDB6A03F001033B6058
:1006E8003B6800BF294B9B6903F40053B3F5005FD7
:1006F800F8D1274B9B6A23F00303254A43F00203F2
:1007080093620123FB624FF480333B6302233B6512
:1007180002237B650523BB65C023FB6502233B667B
:1007280002237B660223BB660823FB6600233B6724
:1007380000237B6707F12C03184601F0D9FB034619
:10074800002B01D000F024F93F23FB6003233B6119
:1007580000237B610823BB614023FB6140233B628C
:100768004FF480637B624023BB6207F10C030421D2
:10077800184601F0EBFF0346002B01D000F008F902
:1007880000BF7837BD4680BD0004005800480258B5
:100798000044025880B5B0B000AF3B1DBC22002118
:1007A800184605F075FC02237B601923BB62C2233F
:1007B800FB6202233B6302237B630223BB630023A8
:1007C800FB6300233B6400237B640223BB673B1D60
:1007D800184602F047FB0346002B01D000F0D8F87A
:1007E80000BFC037BD4680BD80B500AF234B244A4B
:1007F8001A60224B4FF461425A60204B00229A60E3
:100808001E4B0022DA601D4B4FF480621A611B4BAD
:100818000C225A61194B00229A61184B0022DA61A6
:10082800164B00221A62154B00225A62134B002203
:100838009A62124803F07EFE0346002B01D000F0B6
:10084800A7F800210D4805F035FB0346002B01D021
:1008580000F09EF80021094805F06AFB0346002BCA
:1008680001D000F095F8054805F0EBFA0346002B97
:1008780001D000F08DF800BF80BD00BF300000241B
:100888000044004080B500AF234B244A1A60224B35
:100898004FF4E1325A60204B00229A601E4B00222E
:1008A800DA601D4B4FF480621A611B4B0C225A61AF
:1008B800194B00229A61184B0022DA61164B00226C
:1008C8001A62154B00225A62134B00229A62124890
:1008D80003F030FE0346002B01D000F059F8002148
:1008E8000D4805F0E7FA0346002B01D000F050F858
:1008F8000021094805F01CFB0346002B01D000F03D
:1009080047F8054805F09DFA0346002B01D000F092
:100918003FF800BF80BD00BFC00000240048004071
:1009280080B485B000AF194BD3F8E030174A43F0D4
:100938008003C2F8E030154BD3F8E03003F08003B1
:10094800FB60FB68114BD3F8E030104A43F0020318
:10095800C2F8E0300D4BD3F8E03003F00203BB607F
:10096800BB680A4BD3F8E030084A43F00803C2F8E2
:10097800E030064BD3F8E03003F008037B607B6877
:1009880000BF1437BD465DF8047B70470044025829
:1009980080B400AF72B600BFFEE7000080B483B039
:1009A80000AF0A4BD3F8F430084A43F00203C2F808
:1009B800F430064BD3F8F43003F002037B607B6815
:1009C80000BF0C37BD465DF8047B704700440258F1
:1009D80080B58CB000AF786007F11C0300221A6064
:1009E8005A609A60DA601A617B681B68384A9342D9
:1009F8002ED1384BD3F8E830364A43F40033C2F8E6
:100A0800E830344BD3F8E83003F40033BB61BB69FA
:100A1800304BD3F8E0302F4A43F00803C2F8E030F7
:100A28002C4BD3F8E03003F008037B617B6960232B
:100A3800FB6102233B6200237B620023BB62072326
:100A4800FB6207F11C031946234801F067F83BE0F5
:100A58007B681B68214A934236D11E4BD3F8E83095
:100A68001C4A43F48023C2F8E8301A4BD3F8E83024
:100A780003F480233B613B69164BD3F8E030154AF9
:100A880043F00203C2F8E030124BD3F8E03003F031
:100A98000203FB60FB684FF44063FB6102233B6287
:100AA80000237B620023BB620723FB6207F11C0360
:100AB80019460B4801F032F800220021272000F0E7
:100AC80094FA272000F0ABFA00BF3037BD4680BD4E
:100AD8000044004000440258000C025800480040FE
:100AE8000004025880B400AFFEE780B400AFFEE710
:100AF80080B400AFFEE780B400AFFEE780B400AF7B
:100B0800FEE780B400AF00BFBD465DF8047B7047C8
:100B180080B400AF00BFBD465DF8047B704780B469
:100B280000AF00BFBD465DF8047B704780B500AFDD
:100B380000F030F900BF80BD80B500AF024803F077
:100B4800DFFD00BF80BD00BFC000002480B400AF3F
:100B5800374BD3F88830364A43F47003C2F88830EC
:100B6800344B1B6803F00F03062B07D8314B1B6867
:100B780023F00F032F4A43F0070313602E4B1B6823
:100B88002D4A43F0010313602B4B00221A612A4BB4
:100B98001A682949294B13400B60264B1B6803F040
:100BA8000803002B07D0234B1B6823F00F03214AAF
:100BB80043F007031360204B00229A611E4B00226A
:100BC800DA611D4B00221A621B4B1D4A9A621A4BAE
:100BD8001C4ADA62184B1C4A1A63174B00225A63E4
:100BE800154B194A9A63144B0022DA63124B164AC2
:100BF8001A64114B00225A640F4B1B680E4A23F4E7
:100C0800802313600C4B00221A66104B1A68104B95
:100C18001340B3F1005F02D20E4B01221A600E4B53
:100C280043F2D2021A6000BFBD465DF8047B7047EC
:100C380000ED00E000200052004402587FEDF6EA83
:100C4800000202020000FF01800201010010005CA6
:100C58000000FFFF0881005100400052DFF834D047
:100C6800FFF774FF0C480D490D4A002302E0D458E1
:100C7800C4500433C4188C42F9D30A4A0A4C0023DE
:100C880001E013600432A242FBD305F0DDF9FFF75F
:100C9800A1FC704700000824000000241400002470
:100CA800186100081400002454010024FEE7000025
:100CB80080B582B000AF032000F08CF901F0FCFE93
:100CC8000246154B9B691B0A03F00F031349CB5CC3
:100CD80003F01F0322FA03F37B600F4B9B6903F0B9
:100CE8000F030E4AD35C03F01F037A6822FA03F35A
:100CF8000B4A13600B4A7B6813600F2000F014F84E
:100D08000346002B01D0012302E0FFF747FE002332
:100D180018460837BD4680BD00440258D060000818
:100D2800080000240400002480B582B000AF786079
:100D3800154B1B78002B01D1012321E0134B1A68B6
:100D4800114B1B7819464FF47A73B3FBF1F3B2FBDE
:100D5800F3F3184600F071F90346002B01D0012384
:100D68000EE07B680F2B0AD8002279684FF0FF301D
:100D780000F03BF9064A7B681360002300E001237A
:100D880018460837BD4680BD100000240400002422
:100D98000C00002480B400AF064B1B781A46064BA3
:100DA8001B681344044A136000BFBD465DF8047B0A
:100DB800704700BF100000245001002480B400AF29
:100DC800034B1B681846BD465DF8047B704700BF9F
:100DD8005001002480B584B000AF7860FFF7EEFFC3
:100DE800B8607B68FB60FB68B3F1FF3F05D00A4B36
:100DF8001B781A46FB681344FB6000BFFFF7DEFF51
:100E08000246BB68D31AFA689A42F7D800BF00BFF7
:100E18001037BD4680BD00BF1000002480B400AF6D
:100E2800034B1B681B0C1846BD465DF8047B7047D6
:100E38000010005C80B485B000AF78607B6803F078
:100E48000703FB600B4BDB68BB60BA684FF6FF0318
:100E58001340BB60FB681A02BB681A43064B134376
:100E6800BB60044ABB68D36000BF1437BD465DF859
:100E7800047B704700ED00E00000FA0580B400AF85
:100E8800044BDB681B0A03F007031846BD465DF8F0
:100E9800047B704700ED00E080B483B000AF0346E8
:100EA800FB80B7F90630002B0BDBFB8803F01F0231
:100EB8000749B7F906305B09012000FA02F241F848
:100EC800232000BF0C37BD465DF8047B704700BF88
:100ED80000E100E080B483B000AF03463960FB80D6
:100EE800B7F90630002B0ADB3B68DAB20C49B7F9D0
:100EF80006301201D2B20B4483F800230AE03B68A3
:100F0800DAB20849FB8803F00F03043B1201D2B29E
:100F18000B441A7600BF0C37BD465DF8047B70475A
:100F280000E100E000ED00E080B489B000AFF860B7
:100F3800B9607A60FB6803F00703FB61FB69C3F1E2
:100F48000703042B28BF0423BB61FB690433062B6A
:100F580002D9FB69033B00E000237B614FF0FF32BD
:100F6800BB6902FA03F3DA43BB681A407B699A400B
:100F78004FF0FF317B6901FA03F3D9437B680B40DB
:100F8800134318462437BD465DF8047B70470000BC
:100F980080B582B000AF78607B68013BB3F1807F99
:100FA80001D301230FE00A4A7B68013B53600F21FC
:100FB8004FF0FF30FFF78EFF054B00229A60044B7D
:100FC80007221A60002318460837BD4680BD00BFB7
:100FD80010E000E080B582B000AF78607868FFF775
:100FE80029FF00BF0837BD4680BD80B586B000AF79
:100FF8000346B9607A60FB81FFF740FF78617A6841
:10100800B9687869FFF790FF0246B7F90E301146C4
:101018001846FFF75FFF00BF1837BD4680BD80B593
:1010280082B000AF0346FB80B7F906301846FFF7D9
:1010380033FF00BF0837BD4680BD80B582B000AF22
:1010480078607868FFF7A4FF034618460837BD465E
:1010580080BD000080B586B000AF7860FFF7AEFEB7
:1010680038617B68002B01D10123DCE27B6893F8AF
:101078003530DBB2022B08D07B6880225A657B684A
:10108800002283F834200123CDE27B681B68764A6E
:1010980093424AD07B681B68744A934245D07B6868
:1010A8001B68734A934240D07B681B68714A93421D
:1010B8003BD07B681B68704A934236D07B681B68BC
:1010C8006E4A934231D07B681B686D4A93422CD09C
:1010D8007B681B686B4A934227D07B681B686A4A07
:1010E800934222D07B681B68684A93421DD07B6874
:1010F8001B68674A934218D07B681B68654A93420D
:1011080013D07B681B68644A93420ED07B681B68C7
:10111800624A934209D07B681B68614A934204D0B3
:101128007B681B685F4A934201D1012300E00023DA
:10113800002B13D07B681B681A687B681B6822F039
:101148001E021A607B681B685A697B681B6822F05C
:1011580080025A617B681B687B610AE07B681B68B8
:101168001A687B681B6822F00E021A607B681B688D
:101178007B617B681B683C4A934272D07B681B6822
:101188003A4A93426DD07B681B68394A934268D0CB
:101198007B681B68374A934263D07B681B68364A72
:1011A80093425ED07B681B68344A934259D07B686F
:1011B8001B68334A934254D07B681B68314A934278
:1011C8004FD07B681B68304A93424AD07B681B68C3
:1011D8002E4A934245D07B681B682D4A934240D0E3
:1011E8007B681B682B4A93423BD07B681B682A4A62
:1011F800934236D07B681B68284A934231D07B687B
:101208001B68274A93422CD07B681B68254A934267
:1012180027D07B681B68244A934222D07B681B68CE
:10122800224A93421DD07B681B68214A934218D0FA
:101238007B681B681F4A934213D07B681B681E4A51
:1012480093420ED07B681B681C4A934209D07B6886
:101258001B681B4A934204D07B681B68194A934257
:1012680032D1012331E000BF1000024028000240C3
:1012780040000240580002407000024088000240CE
:10128800A0000240B80002401004024028040240B6
:10129800400402405804024070040240880402409E
:1012A800A0040240B8040240085402581C540258D2
:1012B8003054025844540258585402586C54025836
:1012C80080540258945402580023002B07D07B689E
:1012D8001B6E1A687B681B6E22F480721A607B682A
:1012E8001B686D4A93424AD07B681B686B4A9342DD
:1012F80045D07B681B686A4A934240D07B681B686C
:10130800684A93423BD07B681B68674A934236D051
:101318007B681B68654A934231D07B681B68644AC6
:1013280093422CD07B681B68624A934227D07B6823
:101338001B68614A934222D07B681B685F4A9342CC
:101348001DD07B681B685E4A934218D07B681B6877
:101358005C4A934213D07B681B685B4A93420ED069
:101368007B681B68594A934209D07B681B68584AB6
:10137800934204D07B681B68564A934208D17B6825
:101388001B681A687B681B6822F001021A6007E074
:101398007B681B681A687B681B6822F001021A6068
:1013A80013E0FFF70BFD02463B69D31A052B0CD956
:1013B8007B6820225A657B68032283F835207B6886
:1013C800002283F8342001232DE17B691B6803F098
:1013D8000103002BE5D17B681B682F4A93424AD052
:1013E8007B681B682D4A934245D07B681B682C4A52
:1013F800934240D07B681B682A4A93423BD07B6863
:101408001B68294A934236D07B681B68274A934257
:1014180031D07B681B68264A93422CD07B681B68B6
:10142800244A934227D07B681B68234A934222D0E0
:101438007B681B68214A93421DD07B681B68204A41
:10144800934218D07B681B681E4A934213D07B686E
:101458001B681D4A93420ED07B681B681B4A934247
:1014680009D07B681B681A4A934204D07B681B68C2
:10147800184A934201D1012300E00023002B2BD00E
:101488007B689B6DBB607B68DB6D03F01F033F22AD
:101498009A40BB689A602AE0100002402800024087
:1014A800400002405800024070000240880002409C
:1014B800A0000240B8000240100402402804024084
:1014C800400402405804024070040240880402406C
:1014D800A0040240B80402407B689B6DFB607B68F7
:1014E800DB6D03F01F0301229A40FB685A607B689A
:1014F8001B684F4A934272D07B681B684D4A9342DF
:101508006DD07B681B684C4A934268D07B681B6827
:101518004A4A934263D07B681B68494A93425ED02B
:101528007B681B68474A934259D07B681B68464AC8
:10153800934254D07B681B68444A93424FD07B68DF
:101548001B68434A93424AD07B681B68414A9342CE
:1015580045D07B681B68404A934240D07B681B6833
:101568003E4A93423BD07B681B683D4A934236D043
:101578007B681B683B4A934231D07B681B683A4AB8
:1015880093422CD07B681B68384A934227D07B68EB
:101598001B68374A934222D07B681B68354A9342BE
:1015A8001DD07B681B68344A934218D07B681B683F
:1015B800324A934213D07B681B68314A93420ED05B
:1015C8007B681B682F4A934209D07B681B682E4AA8
:1015D800934204D07B681B682C4A934201D10123B3
:1015E80000E00023002B15D07B685B6E7A68926E52
:1015F8005A607B68DB6E002B0CD07B68DB6E1A6848
:101608007B68DB6E22F480721A607B681B6F7A68D5
:10161800526F5A607B68012283F835207B6800226C
:1016280083F83420002318461837BD4680BD00BF14
:1016380010000240280002404000024058000240CA
:101648007000024088000240A0000240B80002403A
:10165800100402402804024040040240580402409A
:101668007004024088040240A0040240B80402400A
:10167800085402581C540258305402584454025812
:10168800585402586C5402588054025894540258C2
:1016980080B584B000AF78607B68002B01D101234E
:1016A80037E27B6893F83530DBB2022B04D07B68D5
:1016B80080225A6501232CE27B681B685C4A9342AE
:1016C8004AD07B681B685B4A934245D07B681B689D
:1016D800594A934240D07B681B68584A93423BD092
:1016E8007B681B68564A934236D07B681B68554A0C
:1016F800934231D07B681B68534A93422CD07B6855
:101708001B68524A934227D07B681B68504A934211
:1017180022D07B681B684F4A93421DD07B681B68A8
:101728004D4A934218D07B681B684C4A934213D0A9
:101738007B681B684A4A93420ED07B681B68494AFB
:10174800934209D07B681B68474A934204D07B6860
:101758001B68464A934201D1012300E00023002B75
:1017680000F086807B68042283F835207B681B683C
:101778002F4A93424AD07B681B682E4A934245D031
:101788007B681B682C4A934240D07B681B682B4AB5
:1017980093423BD07B681B68294A934236D07B68CA
:1017A8001B68284A934231D07B681B68264A9342BB
:1017B8002CD07B681B68254A934227D07B681B681E
:1017C800234A934222D07B681B68224A93421DD049
:1017D8007B681B68204A934218D07B681B681F4AA5
:1017E800934213D07B681B681D4A93420ED07B68D6
:1017F8001B681C4A934209D07B681B681A4A9342AB
:1018080004D07B681B68194A934208D17B681B681F
:101818001A687B681B6822F001021A6078E17B680D
:101828001B681A687B681B6822F001021A606FE166
:1018380010000240280002404000024058000240C8
:101848007000024088000240A0000240B800024038
:101858001004024028040240400402405804024098
:101868007004024088040240A0040240B804024008
:101878007B681B681A687B681B6822F00E021A6076
:101888007B681B686C4A93424AD07B681B686B4A2A
:10189800934245D07B681B68694A934240D07B6875
:1018A8001B68684A93423BD07B681B68664A934230
:1018B80036D07B681B68654A934231D07B681B68C9
:1018C800634A93422CD07B681B68624A934227D0B4
:1018D8007B681B68604A934222D07B681B685F4A1A
:1018E80093421DD07B681B685D4A934218D07B6881
:1018F8001B685C4A934213D07B681B685A4A934220
:101908000ED07B681B68594A934209D07B681B68D4
:10191800574A934204D07B681B68564A934208D1C1
:101928007B681B681A687B681B6822F001021A60D2
:1019380007E07B681B681A687B681B6822F0010255
:101948001A607B681B683C4A934272D07B681B68AC
:101958003A4A93426DD07B681B68394A934268D0F3
:101968007B681B68374A934263D07B681B68364A9A
:1019780093425ED07B681B68344A934259D07B6897
:101988001B68334A934254D07B681B68314A9342A0
:101998004FD07B681B68304A93424AD07B681B68EB
:1019A8002E4A934245D07B681B682D4A934240D00B
:1019B8007B681B682B4A93423BD07B681B682A4A8A
:1019C800934236D07B681B68284A934231D07B68A3
:1019D8001B68274A93422CD07B681B68254A934290
:1019E80027D07B681B68244A934222D07B681B68F7
:1019F800224A93421DD07B681B68214A934218D023
:101A08007B681B681F4A934213D07B681B681E4A79
:101A180093420ED07B681B681C4A934209D07B68AE
:101A28001B681B4A934204D07B681B68194A93427F
:101A380032D1012331E000BF1000024028000240EB
:101A480040000240580002407000024088000240F6
:101A5800A0000240B80002401004024028040240DE
:101A680040040240580402407004024088040240C6
:101A7800A0040240B8040240085402581C540258FA
:101A88003054025844540258585402586C5402585E
:101A980080540258945402580023002B28D07B68A5
:101AA8001B6E1A687B681B6E22F480721A607B6852
:101AB8009B6DFB607B68DB6D03F01F0301229A407E
:101AC800FB685A607B685B6E7A68926E5A607B68C6
:101AD800DB6E002B0CD07B68DB6E1A687B68DB6ED4
:101AE80022F480721A607B681B6F7A68526F5A60A2
:101AF8007B68012283F835207B68002283F8342034
:101B08007B681B6D002B03D07B681B6D786898473A
:101B1800002318461037BD4680BD00BF80B489B089
:101B280000AF786039600023FB61894B7B6194E1E9
:101B38003B681A680121FB6901FA03F313403B6112
:101B48003B69002B00F086813B685B6803F0030368
:101B5800012B05D03B685B6803F00303022B30D1EF
:101B68007B689B68BB61FB695B00032202FA03F395
:101B7800DB43BA691340BB613B68DA68FB695B0009
:101B880002FA03F3BA691343BB617B68BA699A60C6
:101B98007B685B68BB610122FB6902FA03F3DB43E4
:101BA800BA691340BB613B685B681B0903F001021B
:101BB800FB6902FA03F3BA691343BB617B68BA692C
:101BC8005A603B685B6803F00303032B17D07B68FC
:101BD800DB68BB61FB695B00032202FA03F3DB43AA
:101BE800BA691340BB613B689A68FB695B0002FAFB
:101BF80003F3BA691343BB617B68BA69DA603B686F
:101C08005B6803F00303022B23D1FB69DA087B68C6
:101C1800083253F82230BB61FB6903F007039B00CD
:101C28000F2202FA03F3DB43BA691340BB613B6836
:101C38001A69FB6903F007039B0002FA03F3BA6908
:101C48001343BB61FB69DA087B680832B96943F85A
:101C580022107B681B68BB61FB695B00032202FAE8
:101C680003F3DB43BA691340BB613B685B6803F06D
:101C78000302FB695B0002FA03F3BA691343BB6111
:101C88007B68BA691A603B685B6803F44033002BD1
:101C980000F0E0802F4BD3F8F4302E4A43F00203D3
:101CA800C2F8F4302B4BD3F8F43003F00203FB6096
:101CB800FB68294AFB699B08023352F82330BB6151
:101CC800FB6903F003039B000F2202FA03F3DB43D3
:101CD800BA691340BB617B68204A934252D07B6843
:101CE8001F4A934231D07B681E4A93422BD07B68AF
:101CF8001D4A934225D07B681C4A93421FD07B68BB
:101D08001B4A934219D07B681A4A934213D07B68C6
:101D1800194A93420DD07B68184A934207D07B68D2
:101D2800174A934201D109232DE00A232BE0082307
:101D380029E0072327E0062325E0052323E00423E1
:101D480021E003231FE002231DE001231BE000BF65
:101D5800800000580044025800040058000002584F
:101D68000004025800080258000C025800100258DB
:101D78000014025800180258001C0258002002588B
:101D8800002402580023FA6902F0030292009340EB
:101D9800BA691343BB613849FB699B080233BA69C6
:101DA80041F823204FF0B0431B68BB613B69DB431C
:101DB800BA691340BB613B685B6803F48013002B6E
:101DC80003D0BA693B691343BB614FF0B042BB69AA
:101DD80013604FF0B0435B68BB613B69DB43BA6992
:101DE8001340BB613B685B6803F40013002B03D00E
:101DF800BA693B691343BB614FF0B042BB6953609A
:101E08007B695B68BB613B69DB43BA691340BB61B3
:101E18003B685B6803F40033002B03D0BA693B6965
:101E28001343BB617B69BA695A607B691B68BB61F4
:101E38003B69DB43BA691340BB613B685B6803F4E9
:101E48008033002B03D0BA693B691343BB617B69BC
:101E5800BA691A60FB690133FB613B681A68FB6960
:101E680022FA03F3002B7FF463AE00BF00BF2437D0
:101E7800BD465DF8047B70470004005880B584B007
:101E880000AF7860194BDB6803F00403042B0AD019
:101E9800164BDB6803F007037A689A4201D00123E6
:101EA8001FE000231DE0114BDB6823F007020F49F8
:101EB8007B681343CB60FEF781FFF86009E0FEF70B
:101EC8007DFF0246FB68D31AB3F57A7F01D9012357
:101ED80007E0064B5B6803F40053B3F5005FEED1EF
:101EE800002318461037BD4680BD00BF0048025881
:101EF80080B58CB000AF78607B68002B02D10123DD
:101F080000F01DBC7B681B6803F00103002B00F088
:101F18008780994B1B6903F03803FB62964B9B6AD9
:101F2800BB62FB6A102B07D0FB6A182B10D1BB6A67
:101F380003F00303022B0BD18F4B1B6803F4003310
:101F4800002B6CD07B685B68002B68D10123F6E31B
:101F58007B685B68B3F5803F06D1874B1B68864A70
:101F680043F4803313602EE07B685B68002B0CD150
:101F7800814B1B68804A23F4803313607E4B1B68B7
:101F88007D4A23F4802313601DE07B685B68B3F50A
:101F9800A02F0CD1784B1B68774A43F48023136039
:101FA800754B1B68744A43F4803313600BE0724B23
:101FB8001B68714A23F4803313606F4B1B686E4AA9
:101FC80023F4802313607B685B68002B13D0FEF733
:101FD800F5FE786208E0FEF7F1FE02467B6AD31A46
:101FE800642B01D90323AAE3634B1B6803F4003372
:101FF800002BF0D014E0FEF7E1FE786208E0FEF76F
:10200800DDFE02467B6AD31A642B01D9032396E3CB
:10201800594B1B6803F40033002BF0D100E000BFDC
:102028007B681B6803F00203002B00F0CB80524B47
:102038001B6903F038033B624F4B9B6AFB613B6AA9
:10204800002B07D03B6A182B56D1FB6903F003031A
:10205800002B51D1484B1B6803F00403002B05D01B
:102068007B68DB68002B01D1012368E3424B1B68C6
:1020780023F019027B68DB683F4913430B60FEF7C6
:102088009DFE786208E0FEF799FE02467B6AD31A45
:10209800022B01D9032352E3374B1B6803F00403D7
:1020A800002BF0D0FEF7BAFE034641F2030293423A
:1020B80017D87B681B69402B08D12F4B5B6823F42A
:1020C8007C332D4A43F4003353607BE02A4B5B6832
:1020D80023F47C327B681B691B03274913434B603D
:1020E80070E0254B5B6823F0FE427B681B691B068A
:1020F800214913434B6065E07B68DB68002B48D0BF
:102108001D4B1B6823F019027B68DB681A491343CF
:102118000B60FEF753FE786208E0FEF74FFE0246BA
:102128007B6AD31A022B01D9032308E3124B1B68DD
:1021380003F00403002BF0D0FEF770FE034641F2D3
:10214800030293421AD87B681B69402B08D10A4BBB
:102158005B6823F47C33084A43F40033536031E06E
:10216800054B5B6823F47C327B681B691B030249BF
:1021780013434B6026E000BF004402589A4B5B684B
:1021880023F0FE427B681B691B06974913434B608B
:1021980018E0954B1B68944A23F001031360FEF77F
:1021A8000DFE786208E0FEF709FE02467B6AD31A44
:1021B800022B01D90323C2E28B4B1B6803F00403F3
:1021C800002BF0D17B681B6803F01003002B00F094
:1021D800A980854B1B6903F03803BB61824B9B6A5E
:1021E8007B61BB69082B07D0BB69182B3AD17B6987
:1021F80003F00303012B35D17B4B1B6803F4807379
:10220800002B05D07B68DB69802B01D0012396E287
:10221800FEF704FE034641F20302934217D87B6897
:102228001B6A202B08D1704B5B6823F0F8436E4A79
:1022380043F08043536075E06B4B5B6823F0F842D2
:102248007B681B6A9B06684913434B606AE0664BD0
:10225800DB6823F07C527B681B6A1B0662491343C8
:10226800CB605FE07B68DB69002B42D05E4B1B686C
:102278005D4A43F080031360FEF7A0FD786208E032
:10228800FEF79CFD02467B6AD31A022B01D9032371
:1022980055E2554B1B6803F48073002BF0D0FEF712
:1022A800BDFD034641F20302934217D87B681B6ABF
:1022B800202B08D14C4B5B6823F0F8434A4A43F083
:1022C800804353602EE0484B5B6823F0F8427B68FC
:1022D8001B6A9B06444913434B6023E0424BDB686F
:1022E80023F07C527B681B6A1B063F491343CB6073
:1022F80018E03D4B1B683C4A23F080031360FEF74F
:102308005DFD786208E0FEF759FD02467B6AD31A44
:10231800022B01D9032312E2334B1B6803F48073A9
:10232800002BF0D17B681B6803F00803002B36D024
:102338007B685B69002B19D02B4B5B6F2A4A43F0F3
:1023480001035367FEF73AFD786208E0FEF736FDB1
:1023580002467B6AD31A022B01D90323EFE1224BF1
:102368005B6F03F00203002BF0D018E01E4B5B6F8D
:102378001D4A23F001035367FEF720FD786208E049
:10238800FEF71CFD02467B6AD31A022B01D90323F0
:10239800D5E1154B5B6F03F00203002BF0D17B688E
:1023A8001B6803F02003002B39D07B689B69002B46
:1023B8001CD00D4B1B680C4A43F480531360FEF786
:1023C800FDFC786208E0FEF7F9FC02467B6AD31A46
:1023D800022B01D90323B2E1034B1B6803F400531A
:1023E800002BF0D01BE000BF004402589B4B1B6839
:1023F8009A4A23F480531360FEF7E0FC786208E001
:10240800FEF7DCFC02467B6AD31A022B01D90323B0
:1024180095E1924B1B6803F40053002BF0D17B68C5
:102428001B6803F00403002B00F081808C4B1B68B1
:102438008B4A43F480731360FEF7C0FC786208E0AF
:10244800FEF7BCFC02467B6AD31A642B01D903232E
:1024580075E1834B1B6803F48073002BF0D07B6815
:102468009B68012B06D17D4B1B6F7C4A43F001030F
:1024780013672DE07B689B68002B0CD1774B1B6F93
:10248800764A23F001031367744B1B6F734A23F0DA
:10249800040313671CE07B689B68052B0CD16F4B0A
:1024A8001B6F6E4A43F0040313676C4B1B6F6B4A38
:1024B80043F0010313670BE0684B1B6F674A23F077
:1024C80001031367654B1B6F644A23F0040313670A
:1024D8007B689B68002B15D0FEF770FC78620AE0D9
:1024E800FEF76CFC02467B6AD31A41F288329342AB
:1024F80001D9032323E1594B1B6F03F00203002B7F
:10250800EED014E0FEF75AFC78620AE0FEF756FCBB
:1025180002467B6AD31A41F28832934201D90323D7
:102528000DE14E4B1B6F03F00203002BEED17B68CD
:102538005B6A002B00F00281484B1B6903F03803EB
:10254800182B00F0BD807B685B6A022B40F09E80F0
:10255800424B1B68414A23F080731360FEF72EFC40
:10256800786208E0FEF72AFC02467B6AD31A022B3F
:1025780001D90323E3E0394B1B6803F00073002BF8
:10258800F0D1364B9A6A374B13407A68916A7A6869
:10259800D26A12010A43314913438B627B681B6B71
:1025A800013BC3F308027B685B6B013B5B029BB298
:1025B8001A437B689B6B013B1B0403F4FE031A431D
:1025C8007B68DB6B013B1B0603F0FE432349134387
:1025D8000B63224BDB6A214A23F00103D3621F4BB2
:1025E8005A6B214B13407A68926CD2001B491343F3
:1025F8004B631A4BDB6A23F00C027B681B6C174990
:102608001343CB62154BDB6A23F002027B685B6CD9
:1026180012491343CB62114BDB6A104A43F48033EF
:10262800D3620E4BDB6A0D4A43F40033D3620B4B83
:10263800DB6A0A4A43F48023D362084BDB6A074A01
:1026480043F00103D362054B1B68044A43F08073CF
:102658001360FEF7B3FB786211E000BF0044025834
:10266800004802580CFCFFFF0700FFFFFEF7A6FB1F
:1026780002467B6AD31A022B01D903235FE0324B4F
:102688001B6803F00073002BF0D057E02E4B1B683B
:102698002D4A23F080731360FEF790FB786208E000
:1026A800FEF78CFB02467B6AD31A022B01D903235F
:1026B80045E0254B1B6803F00073002BF0D13DE08B
:1026C800214B9B6A3B61204B1B6BFB607B685B6A01
:1026D800012B31D03B6903F003027B689B6A9A4265
:1026E8002AD13B691B0903F03F027B68DB6A9A42E7
:1026F80022D1FB68C3F308027B681B6B013B9A423B
:102708001AD1FB685B0A03F07F027B685B6B013BB5
:102718009A4211D1FB681B0C03F07F027B689B6B0C
:10272800013B9A4208D1FB681B0E03F07F027B68CD
:10273800DB6B013B9A4201D0012300E000231846DD
:102748003037BD4680BD00BF0044025880B586B012
:1027580000AF786039607B68002B01D101239CE1D0
:102768008A4B1B6803F00F033A689A4210D9874BCB
:102778001B6823F00F0285493B6813430B60834BAA
:102788001B6803F00F033A689A4201D0012384E1E1
:102798007B681B6803F00403002B10D07B681A6960
:1027A8007B4B9B6903F070039A4208D9784B9B696D
:1027B80023F070027B681B69754913438B617B6842
:1027C8001B6803F00803002B10D07B685A69704B14
:1027D800DB6903F070039A4208D96D4BDB6923F07B
:1027E80070027B685B696A491343CB617B681B682D
:1027F80003F01003002B10D07B689A69644BDB69E7
:1028080003F4E0639A4208D9614BDB6923F4E06280
:102818007B689B695E491343CB617B681B6803F047
:102828002003002B10D07B68DA69594B1B6A03F030
:1028380070039A4208D9564B1B6A23F070027B68D2
:10284800DB69534913430B627B681B6803F002037F
:10285800002B10D07B68DA684D4B9B6903F00F039F
:102868009A4208D94A4B9B6923F00F027B68DB68C0
:10287800474913438B617B681B6803F00103002BF6
:1028880055D0434B9B6923F470627B689B68404931
:1028980013438B617B685B68022B07D13C4B1B6839
:1028A80003F40033002B21D10123F6E07B685B6839
:1028B800032B07D1364B1B6803F00073002B15D18F
:1028C8000123EAE07B685B68012B07D1304B1B686A
:1028D80003F48073002B09D10123DEE02C4B1B6825
:1028E80003F00403002B01D10123D6E0284B1B6918
:1028F80023F007027B685B68254913430B61FEF7E9
:102908005DFA78610AE0FEF759FA02467B69D31A44
:1029180041F28832934201D90323BEE01C4B1B6964
:1029280003F038027B685B68DB009A42EBD17B6876
:102938001B6803F00203002B10D07B68DA68144B85
:102948009B6903F00F039A4208D2114B9B6923F04D
:102958000F027B68DB680E4913438B610B4B1B68C6
:1029680003F00F033A689A4214D2084B1B6823F00D
:102978000F0206493B6813430B60044B1B6803F0C6
:102988000F033A689A4205D0012386E000200052DE
:10299800004402587B681B6803F00403002B10D026
:1029A8007B681A693F4B9B6903F070039A4208D20F
:1029B8003C4B9B6923F070027B681B6939491343C0
:1029C8008B617B681B6803F00803002B10D07B68C1
:1029D8005A69344BDB6903F070039A4208D2314BD1
:1029E800DB6923F070027B685B692E491343CB6176
:1029F8007B681B6803F01003002B10D07B689A6972
:102A0800284BDB6903F4E0639A4208D2254BDB6963
:102A180023F4E0627B689B6922491343CB617B689E
:102A28001B6803F02003002B10D07B68DA691D4B6C
:102A38001B6A03F070039A4208D21A4B1B6A23F0F0
:102A480070027B68DB69174913430B6200F034F8A6
:102A58000246144B9B691B0A03F00F031249CB5C17
:102A680003F01F0322FA03F33B610E4B9B6903F04B
:102A78000F030D4AD35C03F01F033A6922FA03F3EC
:102A88000A4A13600A4A3B6913600A4B1B681846D6
:102A9800FEF74AF90346FB73FB7B18461837BD4619
:102AA80080BD00BF00440258D06000080800002420
:102AB800040000240C00002480B489B000AFB34B9C
:102AC8001B6903F03803182B00F2558101A252F854
:102AD80023F000BF412B00087F2D00087F2D000840
:102AE8007F2D00087F2D00087F2D00087F2D00080E
:102AF8007F2D0008672B00087F2D00087F2D000818
:102B08007F2D00087F2D00087F2D00087F2D0008ED
:102B18007F2D00086D2B00087F2D00087F2D0008F1
:102B28007F2D00087F2D00087F2D00087F2D0008CD
:102B38007F2D0008732B0008944B1B6803F02003BB
:102B4800002B09D0914B1B68DB0803F00303904A64
:102B580022FA03F3BB6111E18D4BBB610EE18D4B92
:102B6800BB610BE18C4BBB6108E1884B9B6A03F0AE
:102B780003037B61854B9B6A1B0903F03F033B61A1
:102B8800824BDB6A03F00103FB60804B5B6BDB0865
:102B9800C3F30C03FA6802FB03F307EE903AF8EE6E
:102BA800677AC7ED027A3B69002B00F0E1807B6908
:102BB800022B00F083807B69022B00F2A1807B69E5
:102BC800002B03D07B69012B56D099E06F4B1B6813
:102BD80003F02003002B2DD06C4B1B68DB0803F09F
:102BE80003036B4A22FA03F37B607B6807EE903A93
:102BF800F8EE676A3B6907EE903AF8EE677A86EE78
:102C0800A77A624B1B6BC3F3080307EE903AF8EE02
:102C1800676A97ED026ADFED615AC6EE257A76EEAD
:102C2800A77AF7EE006A77EEA67A67EE277AC7EDFD
:102C3800077A87E03B6907EE903AF8EE677ADFEDAE
:102C4800586A86EEA77A514B1B6BC3F3080307EE4D
:102C5800903AF8EE676A97ED026ADFED505AC6EED1
:102C6800257A76EEA77AF7EE006A77EEA67A67EE0F
:102C7800277AC7ED077A65E03B6907EE903AF8EEE8
:102C8800677ADFED486A86EEA77A404B1B6BC3F381
:102C9800080307EE903AF8EE676A97ED026ADFEDEF
:102CA8003F5AC6EE257A76EEA77AF7EE006A77EEF7
:102CB800A67A67EE277AC7ED077A43E03B6907EE05
:102CC800903AF8EE677ADFED386A86EEA77A2F4BEE
:102CD8001B6BC3F3080307EE903AF8EE676A97EDAB
:102CE800026ADFED2E5AC6EE257A76EEA77AF7EE5F
:102CF800006A77EEA67A67EE277AC7ED077A21E0B1
:102D08003B6907EE903AF8EE677ADFED266A86EEC1
:102D1800A77A1E4B1B6BC3F3080307EE903AF8EE35
:102D2800676A97ED026ADFED1D5AC6EE257A76EEE0
:102D3800A77AF7EE006A77EEA67A67EE277AC7EDEC
:102D4800077A00BF114B1B6B5B0A03F07F0301334B
:102D58003B603B6807EE903AB8EE677AD7ED076AB2
:102D6800C6EE877AFCEEE77A17EE903ABB6105E08B
:102D78000023BB6102E0074BBB6100BFBB6918467B
:102D88002437BD465DF8047B704700BF00440258F5
:102D98000090D00300093D0040787D010000004606
:102DA8000024744C0024744A20BCBE4B80B582B009
:102DB80000AFFFF781FE0246104B9B691B0A03F028
:102DC8000F030F49CB5C03F01F0322FA03F37B6068
:102DD8000A4B9B6903F00F03094AD35C03F01F03F6
:102DE8007A6822FA03F3074A1360074A7B6813607C
:102DF800044B1B6818460837BD4680BD004402587E
:102E0800D0600008080000240400002480B500AF4A
:102E1800FFF7CCFF0246064BDB691B0903F00703EB
:102E28000449CB5C03F01F0322FA03F3184680BD64
:102E380000440258D060000880B500AFFFF7B6FF25
:102E48000246064BDB691B0A03F007030449CB5C07
:102E580003F01F0322FA03F3184680BD004402580A
:102E6800D060000880B586B000AF78600023FB759D
:102E78000023BB757B681B6803F00063002B3FD001
:102E88007B685B6EB3F5401F2AD0B3F5401F24D88A
:102E9800B3F5001F18D0B3F5001F1ED8002B03D0C0
:102EA800B3F5801F07D018E0A34BDB6AA24A43F4AE
:102EB8000033D36215E07B6804330221184601F021
:102EC800D5F90346FB750CE07B68243302211846CC
:102ED80001F07EFA0346FB7503E00123FB7500E071
:102EE80000BFFB7D002B09D1934B1B6D23F44012CF
:102EF8007B685B6E904913430B6501E0FB7DBB75F6
:102F08007B681B6803F48073002B3DD07B685B6D86
:102F1800042B26D801A252F823F000BF392F00084D
:102F2800472F0008592F0008712F0008712F00083B
:102F3800814BDB6A804A43F40033D36215E07B6837
:102F480004330021184601F091F90346FB750CE0A3
:102F58007B6824330021184601F03AFA0346FB75D2
:102F680003E00123FB7500E000BFFB7D002B09D1C6
:102F7800714B1B6D23F007027B685B6D6E49134331
:102F88000B6501E0FB7DBB757B681B6803F4007370
:102F9800002B42D07B689B6DB3F5807F2BD0B3F5B7
:102FA800807F25D8C02B28D0C02B21D8802B16D0C5
:102FB800802B1DD8002B02D0402B07D018E05E4B89
:102FC800DB6A5D4A43F40033D36217E07B6804335D
:102FD8000021184601F04AF90346FB750EE07B68AC
:102FE80024330021184601F0F3F90346FB7505E088
:102FF8000123FB7502E000BF00E000BFFB7D002B52
:1030080009D14D4B1B6D23F4E0727B689B6D4A49D7
:1030180013430B6501E0FB7DBB757B681B6803F4FC
:103028008063002B49D07B68D3F8A430B3F5000F38
:1030380030D0B3F5000F2AD8B3F5C00F2CD0B3F5B4
:10304800C00F24D8B3F5800F18D0B3F5800F1ED861
:10305800002B03D0B3F5001F07D018E0364BDB6A0E
:10306800354A43F40033D36217E07B680433002108
:10307800184601F0FBF80346FB750EE07B68243325
:103088000021184601F0A4F90346FB7505E0012369
:10309800FB7502E000BF00E000BFFB7D002B0AD1FA
:1030A800254B9B6D23F460027B68D3F8A43022493A
:1030B80013438B6501E0FB7DBB757B681B6803F4DC
:1030C8000063002B4BD07B68D3F8A830B3F1806F36
:1030D80030D0B3F1806F2AD8B3F1407F2ED0B3F14E
:1030E800407F24D8B3F1007F18D0B3F1007F1ED8F9
:1030F800002B03D0B3F1807F07D018E00E4BDB6ABA
:103108000D4A43F40033D36219E07B68043300218D
:10311800184601F0ABF80346FB7510E07B682433D2
:103128000021184601F054F90346FB7507E0012316
:10313800FB7504E000BF02E00044025800BFFB7DBD
:10314800002B0AD1994B9B6D23F0E0627B68D3F882
:10315800A830964913438B6501E0FB7DBB757B68FE
:103168001B6803F00073002B32D07B689B6C302BFC
:103178001CD0302B17D8202B0CD0202B13D8002B89
:1031880016D0102B0FD1894BDB6A884A43F40033E1
:10319800D3620EE07B6804330221184601F066F81A
:1031A8000346FB7505E00123FB7502E000BF00E064
:1031B80000BFFB7D002B09D17C4BDB6C23F0300278
:1031C8007B689B6C79491343CB6401E0FB7DBB753D
:1031D8007B681B6803F48053002B47D07B68DB6D4A
:1031E800B3F5804F30D0B3F5804F2AD8B3F5405FA0
:1031F8002CD0B3F5405F24D8B3F5005F18D0B3F5F1
:10320800005F1ED8002B03D0B3F5805F07D018E00D
:10321800664BDB6A654A43F40033D36217E07B6888
:1032280004330021184601F021F80346FB750EE02F
:103238007B6824330021184601F0CAF80346FB7561
:1032480005E00123FB7502E000BF00E000BFFB7D45
:10325800002B09D1554B1B6D23F4E0427B68DB6DD5
:10326800524913430B6501E0FB7DBB757B681B6806
:1032780003F40053002B49D07B681B6EB3F5A02FD5
:103288002ED0B3F5A02F28D8B3F5802F2AD0B3F5C8
:10329800802F22D8B3F5403F26D0B3F5403F1CD845
:1032A800B3F5003F10D0B3F5003F16D8002B1DD062
:1032B800B3F5803F11D17B6804330121184600F033
:1032C800D5FF0346FB7512E07B68243301211846BD
:1032D80001F07EF80346FB7509E00123FB7506E063
:1032E80000BF04E000BF02E000BF00E000BFFB7DBC
:1032F800002B09D12D4B1B6D23F4E0227B681B6E3C
:103308002A4913430B6501E0FB7DBB757B681B688D
:1033180003F48043002B4DD07B68D3F8AC30B3F175
:10332800A04F2ED0B3F1A04F28D8B3F1804F2AD0A8
:10333800B3F1804F22D8B3F1405F26D0B3F1405F9C
:103348001CD8B3F1005F10D0B3F1005F16D8002B82
:103358001DD0B3F1805F11D17B6804330121184679
:1033680000F084FF0346FB7512E07B6824330121DB
:10337800184601F02DF80346FB7509E00123FB759B
:1033880006E000BF04E000BF02E000BF00E000BFAD
:10339800FB7D002B0CD1054B9B6D23F0E0427B6835
:1033A800D3F8AC30014913438B6503E0004402585D
:1033B800FB7DBB757B681B6803F40043002B2FD093
:1033C8007B68DB6EB3F1005F0ED0B3F1005F14D8F9
:1033D800002B15D0B3F1805F0FD1AF4BDB6AAE4A3B
:1033E80043F40033D3620CE07B68043301211846B0
:1033F80000F03CFF0346FB7503E00123FB7500E08A
:1034080000BFFB7D002B09D1A34B1B6D23F040525D
:103418007B68DB6EA04913430B6501E0FB7DBB7540
:103428007B681B6803F08073002B32D07B685B6C71
:10343800032B1BD801A252F823F000BF7B340008ED
:1034480055340008633400087B340008924BDB6A6B
:10345800914A43F40033D3620CE07B6804330221C1
:10346800184600F003FF0346FB7503E00123FB75D4
:1034780000E000BFFB7D002B09D1874BDB6C23F0FC
:1034880003027B685B6C84491343CB6401E0FB7DDA
:10349800BB757B681B6803F48003002B00F08680F3
:1034A8007E4B1B687D4A43F480731360FDF786FCEE
:1034B800386109E0FDF782FC02463B69D31A642BA8
:1034C80002D90323FB7505E0744B1B6803F4807372
:1034D800002BEFD0FB7D002B66D16F4B1A6F7B68FA
:1034E800D3F8B030534003F44073002B13D06A4B29
:1034F8001B6F23F44073FB60674B1B6F664A43F4F2
:1035080080331367644B1B6F634A23F4803313675C
:10351800614AFB6813677B68D3F8B030B3F5807FE6
:1035280015D1FDF74BFC38610BE0FDF747FC02466F
:103538003B69D31A41F28832934202D90323FB75BF
:1035480005E0554B1B6F03F00203002BEDD0FB7D0C
:10355800002B26D17B68D3F8B03003F44073B3F561
:10356800407F0DD14C4B1B6923F47C527B68D3F808
:10357800B03019094A4B0B40474913430B6105E02A
:10358800454B1B69444A23F47C531361424B1A6F21
:103598007B68D3F8B030C3F30B033F4913430B6781
:1035A80004E0FB7DBB7501E0FB7DBB757B681B6898
:1035B80003F00103002B00F085807B689B6F282BAC
:1035C80066D801A252F823F0AD36000899360008F3
:1035D8009936000899360008993600089936000887
:1035E800993600089936000875360008993600089B
:1035F8009936000899360008993600089936000867
:103608009936000899360008873600089936000868
:103618009936000899360008993600089936000846
:103628009936000899360008AD3600089936000822
:103638009936000899360008993600089936000826
:103648009936000899360008AD3600089936000802
:103658009936000899360008993600089936000806
:103668009936000899360008AD3600087B6804339F
:103678000121184600F0FAFD0346FB7513E07B684C
:1036880024330121184600F0A3FE0346FB750AE027
:103698000123FB7507E000BF0044025800480258A8
:1036A800CFFFFF0000BFFB7D002B09D1964B5B6D60
:1036B80023F038027B689B6F934913434B6501E005
:1036C800FB7DBB757B681B6803F00203002B38D0B9
:1036D8007B685B6F052B21D801A252F823F000BF4D
:1036E8002B37000801370008133700082B3700086C
:1036F8002B3700082B3700087B6804330121184654
:1037080000F0B4FD0346FB750CE07B68243301210F
:10371800184600F05DFE0346FB7503E00123FB75C8
:1037280000E000BFFB7D002B09D1774B5B6D23F0D8
:1037380007027B685B6F744913434B6501E0FB7DAF
:10374800BB757B681B6803F00403002B3AD07B68C9
:10375800D3F89030052B21D801A252F823F000BFEE
:10376800AB3700088137000893370008AB370008EB
:10377800AB370008AB3700087B68043301211846D3
:1037880000F074FD0346FB750CE07B6824330121CF
:10379800184600F01DFE0346FB7503E00123FB7588
:1037A80000E000BFFB7D002B0AD1574B9B6D23F037
:1037B80007027B68D3F89030534913438B6501E0C7
:1037C800FB7DBB757B681B6803F02003002B4BD087
:1037D8007B68D3F88C30B3F1A04F2ED0B3F1A04F53
:1037E80028D8B3F1804F2AD0B3F1804F22D8B3F153
:1037F800405F26D0B3F1405F1CD8B3F1005F10D012
:10380800B3F1005F16D8002B1DD0B3F1805F11D142
:103818007B6804330021184600F028FD0346FB7539
:1038280012E07B6824330221184600F0D1FD0346DC
:10383800FB7509E00123FB7506E000BF04E000BF4B
:1038480002E000BF00E000BFFB7D002B0AD12E4B39
:103858005B6D23F0E0427B68D3F88C302A49134330
:103868004B6501E0FB7DBB757B681B6803F040037B
:10387800002B4DD07B68D3F89830B3F5A05F2ED0DD
:10388800B3F5A05F28D8B3F5805F2AD0B3F5805F81
:1038980022D8B3F5406F26D0B3F5406F1CD8B3F5E6
:1038A800006F10D0B3F5006F16D8002B1DD0B3F5FC
:1038B800806F11D17B6804330021184600F0D6FCD4
:1038C8000346FB7512E07B6824330221184600F09A
:1038D8007FFD0346FB7509E00123FB7506E000BF89
:1038E80004E000BF02E000BF00E000BFFB7D002B4A
:1038F8000CD1054B9B6D23F4E0527B68D3F89830CC
:10390800014913438B6503E000440258FB7DBB75F6
:103918007B681B6803F08003002B4BD07B68D3F8CF
:103928009C30B3F5204F2ED0B3F5204F28D8B3F5EF
:10393800004F2AD0B3F5004F22D8B3F5C04F26D098
:10394800B3F5C04F1CD8B3F5804F10D0B3F5804FF6
:1039580016D8002B1DD0B3F5005F11D17B68043356
:103968000021184600F082FC0346FB7512E07B68D4
:1039780024330221184600F02BFD0346FB7509E0AD
:103988000123FB7506E000BF04E000BF02E000BFB2
:1039980000E000BFFB7D002B0AD19D4B9B6D23F4FB
:1039A80060427B68D3F89C30994913438B6501E0EA
:1039B800FB7DBB757B681B6803F00803002B1AD0DE
:1039C8007B68D3F88030B3F5805F0AD17B682433F5
:1039D8000221184600F0FCFC0346002B01D001230D
:1039E800BB758B4B5B6D23F440527B68D3F88030FA
:1039F800874913434B657B681B6803F01003002B52
:103A08001AD07B68D3F89430B3F5807F0AD17B68ED
:103A180024330221184600F0DBFC0346002B01D0BA
:103A28000123BB757A4B9B6D23F440727B68D3F8F6
:103A38009430774913438B657B681B6803F4002334
:103A4800002B34D07B68D3F8A030B3F5003F1DD0ED
:103A5800B3F5003F17D8002B03D0B3F5803F09D04A
:103A680011E07B6804330021184600F0FFFB034691
:103A7800FB750CE07B6824330221184600F0A8FC93
:103A88000346FB7503E00123FB7500E000BFFB7DE7
:103A9800002B0AD15E4B9B6D23F440327B68D3F830
:103AA800A0305B4913438B6501E0FB7DBB757B68E8
:103AB8001B6803F48023002B33D07B68D3F8843051
:103AC800B3F5401F1CD0B3F5401F16D8B3F5801FBF
:103AD80003D0B3F5001F07D00FE04D4BDB6A4C4A0B
:103AE80043F40033D3620CE07B6824330121184689
:103AF80000F06EFC0346FB7503E00123FB7500E054
:103B080000BFFB7D002B0AD1414B5B6D23F44012B3
:103B18007B68D3F884303E4913434B6501E0FB7D55
:103B2800BB757B681B6803F48033002B29D07B6846
:103B3800DB6C002B03D0B3F5803F07D00FE0344B8C
:103B4800DB6A334A43F40033D3620BE07B68043307
:103B58000221184600F08AFB0346FB7502E00123A8
:103B6800FB7500BFFB7D002B09D1294BDB6C23F4CF
:103B780080327B68DB6C26491343CB6401E0FB7D14
:103B8800BB757B681B6803F00053002B0AD07B6869
:103B980024330221184600F01BFC0346002B01D0F9
:103BA8000123BB757B681B6803F40033002B33D0FB
:103BB8007B68DB6FB3F5407F17D0B3F5407F11D832
:103BC800B3F5007F13D0B3F5007F0BD8002B10D0CE
:103BD800B3F5807F06D10E4BDB6A0D4A43F4003300
:103BE800D36207E00123FB7504E000BF02E000BFD9
:103BF80000E000BFFB7D002B0CD1054B5B6D23F46F
:103C080040727B68DB6F024913434B6504E000BFD9
:103C180000440258FB7DBB757B681B6803F4801366
:103C2800002B08D0314B1B6D23F000427B681B6FC3
:103C38002E4913430B657B681B6803F08053002BE8
:103C480009D02A4B1B6923F480427B68D3F8B4302F
:103C5800264913430B617B681B6803F40013002B90
:103C680008D0224B1B6D23F080727B689B6E1F4926
:103C780013430B657B681B6803F08043002B0DD052
:103C88001A4B1B69194A23F400431361174B1A692D
:103C98007B68D3F8B830154913430B617B681B6800
:103CA800002B08DA114BDB6C23F040527B681B6D4C
:103CB8000E491343CB647B681B6803F40003002B95
:103CC80009D00A4B5B6D23F440027B68D3F8883037
:103CD800064913434B65BB7D002B01D1002300E04F
:103CE800012318461837BD4680BD00BF004402585E
:103CF80080B500AFFFF75AF80246064B1B6A1B094E
:103D080003F007030449CB5C03F01F0322FA03F313
:103D1800184680BD00440258D060000880B489B0BD
:103D280000AF7860A14B9B6A03F00303BB619F4B14
:103D38009B6A1B0B03F03F037B619C4BDB6A1B09EF
:103D480003F001033B61994BDB6BDB08C3F30C0306
:103D58003A6902FB03F307EE903AF8EE677AC7ED8B
:103D6800037A7B69002B00F01181BB69022B00F0FC
:103D78008380BB69022B00F2A180BB69002B03D0B2
:103D8800BB69012B56D099E0884B1B6803F02003D0
:103D9800002B2DD0854B1B68DB0803F00303844AF6
:103DA80022FA03F3BB60BB6807EE903AF8EE676A45
:103DB8007B6907EE903AF8EE677A86EEA77A7B4B36
:103DC8009B6BC3F3080307EE903AF8EE676A97ED2A
:103DD800036ADFED785AC6EE257A76EEA77AF7EE13
:103DE800006A77EEA67A67EE277AC7ED077A87E04A
:103DF8007B6907EE903AF8EE677ADFED6F6A86EE38
:103E0800A77A6A4B9B6BC3F3080307EE903AF8EE68
:103E1800676A97ED036ADFED675AC6EE257A76EE94
:103E2800A77AF7EE006A77EEA67A67EE277AC7EDEB
:103E3800077A65E07B6907EE903AF8EE677ADFED7E
:103E48005F6A86EEA77A594B9B6BC3F3080307EEAC
:103E5800903AF8EE676A97ED036ADFED565AC6EEB8
:103E6800257A76EEA77AF7EE006A77EEA67A67EEFD
:103E7800277AC7ED077A43E07B6907EE903AF8EEB8
:103E8800677ADFED4F6A86EEA77A484B9B6BC3F3E0
:103E9800080307EE903AF8EE676A97ED036ADFEDDC
:103EA800455AC6EE257A76EEA77AF7EE006A77EEDF
:103EB800A67A67EE277AC7ED077A21E07B6907EED5
:103EC800903AF8EE677ADFED3D6A86EEA77A374BCF
:103ED8009B6BC3F3080307EE903AF8EE676A97ED19
:103EE800036ADFED345AC6EE257A76EEA77AF7EE46
:103EF800006A77EEA67A67EE277AC7ED077A00BFE1
:103F08002A4B9B6B5B0A03F07F0307EE903AF8EEAF
:103F1800677AB7EE007A37EE877AD7ED076AC6EE8A
:103F2800877AFCEEE77A17EE902A7B681A601F4BB7
:103F38009B6B1B0C03F07F0307EE903AF8EE677A51
:103F4800B7EE007A37EE877AD7ED076AC6EE877A3A
:103F5800FCEEE77A17EE902A7B685A60134B9B6B4E
:103F68001B0E03F07F0307EE903AF8EE677AB7EE80
:103F7800007A37EE877AD7ED076AC6EE877AFCEEC5
:103F8800E77A17EE902A7B689A6008E07B6800223F
:103F98001A607B6800225A607B6800229A6000BF22
:103FA8002437BD465DF8047B704700BF00440258C3
:103FB8000090D003000000460024744C0024744A8A
:103FC80020BCBE4B80B489B000AF7860A14B9B6A1F
:103FD80003F00303BB619F4B9B6A1B0D03F03F0378
:103FE8007B619C4BDB6A1B0A03F001033B61994B25
:103FF8005B6CDB08C3F30C033A6902FB03F307EEBF
:10400800903AF8EE677AC7ED037A7B69002B00F0E7
:104018001181BB69022B00F08380BB69022B00F27F
:10402800A180BB69002B03D0BB69012B56D099E056
:10403800884B1B6803F02003002B2DD0854B1B6891
:10404800DB0803F00303844A22FA03F3BB60BB686E
:1040580007EE903AF8EE676A7B6907EE903AF8EE59
:10406800677A86EEA77A7B4B1B6CC3F3080307EECF
:10407800903AF8EE676A97ED036ADFED785AC6EE74
:10408800257A76EEA77AF7EE006A77EEA67A67EEDB
:10409800277AC7ED077A87E07B6907EE903AF8EE52
:1040A800677ADFED6F6A86EEA77A6A4B1B6CC3F3FB
:1040B800080307EE903AF8EE676A97ED036ADFEDBA
:1040C800675AC6EE257A76EEA77AF7EE006A77EE9B
:1040D800A67A67EE277AC7ED077A65E07B6907EE6F
:1040E800903AF8EE677ADFED5F6A86EEA77A594B69
:1040F8001B6CC3F3080307EE903AF8EE676A97ED76
:10410800036ADFED565AC6EE257A76EEA77AF7EE01
:10411800006A77EEA67A67EE277AC7ED077A43E05A
:104128007B6907EE903AF8EE677ADFED4F6A86EE24
:10413800A77A484B1B6CC3F3080307EE903AF8EED6
:10414800676A97ED036ADFED455AC6EE257A76EE83
:10415800A77AF7EE006A77EEA67A67EE277AC7EDB8
:10416800077A21E07B6907EE903AF8EE677ADFED8F
:104178003D6A86EEA77A374B1B6CC3F3080307EE3C
:10418800903AF8EE676A97ED036ADFED345AC6EEA7
:10419800257A76EEA77AF7EE006A77EEA67A67EECA
:1041A800277AC7ED077A00BF2A4B1B6C5B0A03F01E
:1041B8007F0307EE903AF8EE677AB7EE007A37EEAB
:1041C800877AD7ED076AC6EE877AFCEEE77A17EEAC
:1041D800902A7B681A601F4B1B6C1B0C03F07F0333
:1041E80007EE903AF8EE677AB7EE007A37EE877AFC
:1041F800D7ED076AC6EE877AFCEEE77A17EE902AC3
:104208007B685A60134B1B6C1B0E03F07F0307EE91
:10421800903AF8EE677AB7EE007A37EE877AD7EDFC
:10422800076AC6EE877AFCEEE77A17EE902A7B6873
:104238009A6008E07B6800221A607B6800225A6056
:104248007B6800229A6000BF2437BD465DF8047B76
:10425800704700BF004402580090D0030000004699
:104268000024744C0024744A20BCBE4B80B584B032
:1042780000AF786039600023FB73534B9B6A03F0EF
:104288000303032B01D1012399E04F4B1B684E4ACE
:1042980023F080631360FCF791FDB86008E0FCF739
:1042A8008DFD0246BB68D31A022B01D9032386E091
:1042B800454B1B6803F00063002BF0D1424B9B6A0F
:1042C80023F47C327B681B681B033F4913438B62D2
:1042D8007B685B68013BC3F308027B689B68013B12
:1042E8005B029BB21A437B68DB68013B1B0403F447
:1042F800FE031A437B681B69013B1B0603F0FE4360
:10430800314913438B63304BDB6A23F0C0027B686F
:104318005B692D491343CB622B4BDB6A23F02002E8
:104328007B689B6928491343CB62274BDB6A264A83
:1043380023F01003D362244BDA6B244B13407A68C2
:10434800D269D20020491343CB631F4BDB6A1E4A54
:1043580043F01003D3623B68002B06D11A4BDB6A8B
:10436800194A43F40023D3620FE03B68012B06D1BE
:10437800154BDB6A144A43F48013D36205E0124BF1
:10438800DB6A114A43F40013D3620F4B1B680E4AD1
:1043980043F080631360FCF711FDB86008E0FCF798
:1043A8000DFD0246BB68D31A022B01D9032306E090
:1043B800054B1B6803F00063002BF0D0FB7B18460D
:1043C8001037BD4680BD00BF004402580700FFFFFC
:1043D80080B584B000AF786039600023FB73534B1D
:1043E8009B6A03F00303032B01D1012399E04F4B90
:1043F8001B684E4A23F080531360FCF7DFFCB8605B
:1044080008E0FCF7DBFC0246BB68D31A022B01D993
:10441800032386E0454B1B6803F00053002BF0D1C3
:10442800424B9B6A23F07C727B681B681B053F49E3
:1044380013438B627B685B68013BC3F308027B68AC
:104448009B68013B5B029BB21A437B68DB68013BBC
:104458001B0403F4FE031A437B681B69013B1B061C
:1044680003F0FE43314913430B64304BDB6A23F4FA
:1044780040627B685B692D491343CB622B4BDB6A37
:1044880023F400727B689B6928491343CB62274B4E
:10449800DB6A264A23F48073D362244B5A6C244B7C
:1044A80013407A68D269D200204913434B641F4BEA
:1044B800DB6A1E4A43F48073D3623B68002B06D143
:1044C8001A4BDB6A194A43F48003D3620FE03B6856
:1044D800012B06D1154BDB6A144A43F40003D3625F
:1044E80005E0124BDB6A114A43F08073D3620F4B2D
:1044F8001B680E4A43F080531360FCF75FFCB860FA
:1045080008E0FCF75BFC0246BB68D31A022B01D912
:10451800032306E0054B1B6803F00053002BF0D083
:10452800FB7B18461037BD4680BD00BF00440258CB
:104538000700FFFF80B582B000AF78607B68002B72
:1045480001D1012342E07B68D3F88430002B06D1E7
:104558007B68002283F880207868FCF739FA7B684A
:104568002422C3F884207B681B681A687B681B6850
:1045780022F001021A60786800F080FC0346012BE3
:1045880001D1012322E07B689B6A002B02D0786866
:1045980001F0DCF97B681B685A687B681B6822F4A9
:1045A80090425A607B681B689A687B681B6822F097
:1045B8002A029A607B681B681A687B681B6842F04D
:1045C80001021A60786801F063FA03461846083752
:1045D800BD4680BD80B58AB002AFF860B9603B6067
:1045E8001346FB80FB68D3F88430202B40F083808F
:1045F800BB68002B02D0FB88002B01D101237BE094
:10460800FB6893F88030012B01D1022374E0FB682A
:10461800012283F88020FB680022C3F88C20FB6805
:104628002122C3F88420FCF7C9FB7861FB68FA886B
:10463800A3F85420FB68FA88A3F85620FB689B6807
:10464800B3F5805F08D1FB681B69002B04D10023F8
:10465800FB61BB68BB6103E0BB68FB610023BB6116
:10466800FB68002283F880202CE03B6800937B697C
:1046780000228021F86801F056FA0346002B01D089
:10468800032339E0FB69002B0BD1BB691B881A4651
:10469800FB681B68C2F308029A62BB690233BB61FC
:1046A80007E0FB691A78FB681B689A62FB690133AB
:1046B800FB61FB68B3F856309BB2013B9AB2FB68CA
:1046C800A3F85620FB68B3F856309BB2002BCCD128
:1046D8003B6800937B6900224021F86801F023FAC7
:1046E8000346002B01D0032306E0FB682022C3F811
:1046F8008420002300E0022318462037BD4680BDF1
:1047080080B5BAB000AF78607B681B68DB69C7F812
:10471800E4307B681B681B68C7F8E0307B681B685F
:104728009B68C7F8DC30D7F8E42040F60F03134045
:10473800C7F8D830D7F8D830002B1BD1D7F8E430D9
:1047480003F02003002B15D0D7F8E03003F0200346
:10475800002B05D1D7F8DC3003F08053002B09D0AB
:104768007B681B6F002B00F05A837B681B6F78688F
:10477800984754E3D7F8D830002B00F01F81D7F8BA
:10478800DC208B4B1340002B06D1D7F8E020894B57
:104798001340002B00F01281D7F8E43003F0010336
:1047A800002B11D0D7F8E03003F48073002B0BD026
:1047B8007B681B6801221A627B68D3F88C3043F04F
:1047C80001027B68C3F88C20D7F8E43003F00203B9
:1047D800002B11D0D7F8DC3003F00103002B0BD0ED
:1047E8007B681B6802221A627B68D3F88C3043F01E
:1047F80004027B68C3F88C20D7F8E43003F0040384
:10480800002B11D0D7F8DC3003F00103002B0BD0BC
:104818007B681B6804221A627B68D3F88C3043F0EB
:1048280002027B68C3F88C20D7F8E43003F0080351
:10483800002B17D0D7F8E03003F02003002B05D168
:10484800D7F8DC205A4B1340002B0BD07B681B6831
:1048580008221A627B68D3F88C3043F008027B6820
:10486800C3F88C20D7F8E43003F40063002B12D08F
:10487800D7F8E03003F08063002B0CD07B681B680E
:104888004FF400621A627B68D3F88C3043F0200240
:104898007B68C3F88C207B68D3F88C30002B00F041
:1048A800C082D7F8E43003F02003002B13D0D7F8E8
:1048B800E03003F02003002B05D1D7F8DC3003F0FB
:1048C8008053002B07D07B681B6F002B03D07B68BD
:1048D8001B6F786898477B68D3F88C30C7F8D4305A
:1048E8007B681B689B6803F04003402B05D0D7F812
:1048F800D43003F02803002B4FD0786801F0DCF99E
:104908007B681B689B6803F04003402B41D17B68A0
:104918001B680833C7F89C30D7F89C3053E8003F31
:10492800C7F89830D7F8983023F04003C7F8D0304C
:104938007B681B680833D7F8D020C7F8A820C7F8C9
:10494800A430D7F8A410D7F8A82041E80023C7F866
:10495800A030D7F8A030002BD9D17B68DB6F002BB3
:1049680013D07B68DB6F144A1A657B68DB6F1846C7
:10497800FCF78EFE0346002B17D07B68DB6F1B6DA0
:104988007A68D26F104698470FE0786800F060FAAE
:104998000BE0786800F05CFA07E0786800F058FAF5
:1049A8007B680022C3F88C203BE200BF39E200BFDD
:1049B80001000010200100048D5D00087B68DB6E9B
:1049C800012B40F0CE81D7F8E43003F01003002B20
:1049D80000F0C781D7F8E03003F01003002B00F097
:1049E800C0817B681B6810221A627B681B689B6801
:1049F80003F04003402B40F03B817B68DB6F1B6872
:104A08008B4A934259D07B68DB6F1B68894A934273
:104A180053D07B68DB6F1B68874A93424DD07B6815
:104A2800DB6F1B68854A934247D07B68DB6F1B6846
:104A3800834A934241D07B68DB6F1B68814A93426B
:104A48003BD07B68DB6F1B687F4A934235D07B681D
:104A5800DB6F1B687D4A93422FD07B68DB6F1B6836
:104A68007B4A934229D07B68DB6F1B68794A934263
:104A780023D07B68DB6F1B68774A93421DD07B6825
:104A8800DB6F1B68754A934217D07B68DB6F1B6826
:104A9800734A934211D07B68DB6F1B68714A93425B
:104AA8000BD07B68DB6F1B686F4A934205D07B682D
:104AB800DB6F1B686D4A934205D17B68DB6F1B680F
:104AC8005B689BB204E07B68DB6F1B685B689BB22A
:104AD800A7F8BE30B7F8BE30002B00F0A4817B6881
:104AE800B3F85C30B7F8BE209A4280F09C817B68AE
:104AF800B7F8BE20A3F85E207B68DB6FDB69B3F5EF
:104B0800807F00F086807B681B68C7F88830D7F8FC
:104B1800883053E8003FC7F88430D7F8843023F44E
:104B28008073C7F8B8307B681B681A46D7F8B83066
:104B3800C7F89430C7F89020D7F89010D7F8942089
:104B480041E80023C7F88C30D7F88C30002BDAD135
:104B58007B681B6808337B677B6F53E8003F3B67C4
:104B68003B6F23F00103C7F8B4307B681B68083338
:104B7800D7F8B420C7F88020FB67F96FD7F88020F2
:104B880041E80023BB67BB6F002BE1D17B681B6842
:104B980008333B663B6E53E8003FFB65FB6D23F033
:104BA8004003C7F8B0307B681B680833D7F8B020DB
:104BB800FA66BB66B96EFA6E41E800237B667B6EC7
:104BC800002BE3D17B682022C3F888207B68002271
:104BD800DA667B681B68FB64FB6C53E8003FBB64C8
:104BE800BB6C23F01003C7F8AC307B681B681A460F
:104BF800D7F8AC30BB657A65796DBA6D41E80023AA
:104C08003B653B6D002BE4D17B68DB6F1846FCF7F6
:104C180021FA7B68B3F85C207B68B3F85E309BB2FE
:104C2800D31A9BB21946786800F01CF9FBE000BF64
:104C38001000024028000240400002405800024094
:104C48007000024088000240A0000240B800024004
:104C58001004024028040240400402405804024064
:104C68007004024088040240A0040240B8040240D4
:104C78007B68B3F85C207B68B3F85E309BB2D31ACC
:104C8800A7F8CE307B68B3F85E309BB2002B00F0FB
:104C9800CC80B7F8CE30002B00F0C7807B681B684B
:104CA800BB63BB6B53E8003F7B637B6B23F4907360
:104CB800C7F8C8307B681B681A46D7F8C8307B64C9
:104CC8003A64396C7A6C41E80023FB63FB6B002B78
:104CD800E4D17B681B6808337B627B6A53E8003F3A
:104CE8003B623A6A544B1340C7F8C4307B681B6870
:104CF8000833D7F8C4203A63FB62F96A3A6B41E893
:104D08000023BB62BB6A002BE3D17B682022C3F877
:104D180088207B680022DA667B6800221A677B6835
:104D28001B683B613B6953E8003FFB60FB6823F06D
:104D38001003C7F8C0307B681B681A46D7F8C03024
:104D4800FB61BA61B969FA6941E800237B617B6953
:104D5800002BE4D1B7F8CE301946786800F082F815
:104D680063E0D7F8E43003F48013002B0ED0D7F8B3
:104D7800DC3003F48003002B08D07B681B684FF4F9
:104D880080121A62786801F03EF851E0D7F8E430F2
:104D980003F08003002B14D0D7F8E03003F0800331
:104DA800002B05D1D7F8DC3003F40003002B08D022
:104DB8007B685B6F002B3AD07B685B6F786898479D
:104DC80035E0D7F8E43003F04003002B09D0D7F8DA
:104DD800E03003F04003002B03D0786800F0E8FFD0
:104DE80026E0D7F8E43003F40003002B09D0D7F805
:104DF800E03003F08043002B03D0786801F017F807
:104E080016E0D7F8E43003F08073002B10D0D7F801
:104E1800E030002B0CDA786800F0FFFF08E000BFF4
:104E280006E000BF04E000BF02E000BF00E000BFF2
:104E3800E837BD4680BD00BFFEFFFFEF80B483B0FA
:104E480000AF786000BF0C37BD465DF8047B704743
:104E580080B483B000AF786000BF0C37BD465DF802
:104E6800047B704780B483B000AF78600B467B80CA
:104E780000BF0C37BD465DF8047B70472DE9B04F85
:104E880092B000AF7861002387F842307B699A6856
:104E98007B691B691A437B695B691A437B69DB6918
:104EA80013437B647B691B681A68BE4B13407A699D
:104EB8001268796C0B4313607B691B685B6823F489
:104EC80040517B69DA687B691B680A435A607B69D1
:104ED8009B697B647B691B68B34A934204D07B69F6
:104EE8001B6A7A6C13437B647B691B689A68AF4BB7
:104EF80013407A691268796C0B4393607B691B686D
:104F0800DB6A23F00F017B695A6A7B691B680A43D5
:104F1800DA627B691B68A64A934277D1A54B5B6D21
:104F280003F03803282B6DD801A252F823F000BFF4
:104F3800DD4F00080D5000080D5000080D50000806
:104F48000D5000080D5000080D5000080D500008C5
:104F5800E54F00080D5000080D5000080D500008DE
:104F68000D5000080D5000080D5000080D500008A5
:104F7800ED4F00080D5000080D5000080D500008B6
:104F88000D5000080D5000080D5000080D50000885
:104F9800F54F00080D5000080D5000080D5000088E
:104FA8000D5000080D5000080D5000080D50000865
:104FB800FD4F00080D5000080D5000080D50000866
:104FC8000D5000080D5000080D5000080D50000845
:104FD80005500008012387F8433022E2042387F8AC
:104FE80043301EE2082387F843301AE2102387F87B
:104FF800433016E2202387F8433012E2402387F833
:1050080043300EE2802387F843300AE27B691B684D
:10501800694A934230D1674B5B6D03F00703052B58
:1050280026D801A252F823F0495000085150000830
:105038005950000861500008695000087150000874
:10504800002387F84330ECE1042387F84330E8E194
:10505800082387F84330E4E1102387F84330E0E180
:10506800202387F84330DCE1402387F84330D8E138
:10507800802387F84330D4E17B691B684F4A934209
:1050880030D14C4B5B6D03F00703052B26D801A2EA
:1050980052F823F0B5500008BD500008C55000086C
:1050A800CD500008D5500008DD500008002387F8CF
:1050B8004330B6E1042387F84330B2E1082387F888
:1050C8004330AEE1102387F84330AAE1202387F864
:1050D8004330A6E1402387F84330A2E1802387F8D4
:1050E80043309EE17B691B68354A934230D1314B8E
:1050F8005B6D03F00703052B26D801A252F823F0B5
:10510800215100082951000831510008395100087F
:105118004151000849510008002387F8433080E1D5
:10512800042387F843307CE1082387F8433078E18B
:10513800102387F8433074E1202387F8433070E167
:10514800402387F843306CE1802387F8433068E1D7
:105158007B691B681B4A934242D1164B5B6D03F077
:105168000703052B38D801A252F823F08D51000807
:10517800955100089D510008A5510008D15100081B
:10518800D9510008002387F843304AE1042387F8FF
:10519800433046E1082387F8433042E1102387F87B
:1051A80043303EE1F369FFCF000C0058FFF4FF11D4
:1051B80000100140004402580044004000480040EC
:1051C800004C004000500040202387F8433028E17D
:1051D800402387F8433024E1802387F8433020E1D7
:1051E8007B691B68CB4A934276D1CB4B5B6D03F04E
:1051F8003803282B6CD801A252F823F0A9520008D2
:10520800D9520008D9520008D9520008D9520008CA
:10521800D9520008D9520008D9520008B1520008E2
:10522800D9520008D9520008D9520008D9520008AA
:10523800D9520008D9520008D9520008B9520008BA
:10524800D9520008D9520008D9520008D95200088A
:10525800D9520008D9520008D9520008C152000892
:10526800D9520008D9520008D9520008D95200086A
:10527800D9520008D9520008D9520008C95200086A
:10528800D9520008D9520008D9520008D95200084A
:10529800D9520008D9520008D9520008D152000842
:1052A800012387F84330BCE0042387F84330B8E093
:1052B800082387F84330B4E0102387F84330B0E080
:1052C800202387F84330ACE0402387F84330A8E038
:1052D800802387F84330A4E07B691B688F4A934298
:1052E80030D18D4B5B6D03F00703052B26D801A247
:1052F80052F823F0155300081D53000825530008E1
:105308002D530008355300083D530008002387F843
:10531800433086E0042387F8433082E0082387F887
:1053280043307EE0102387F843307AE0202387F863
:10533800433076E0402387F8433072E0802387F8D3
:1053480043306EE07B691B68754A934230D1724BDB
:105358005B6D03F00703052B26D801A252F823F052
:105368008153000889530008915300089953000895
:10537800A1530008A9530008002387F8433050E0E0
:10538800042387F843304CE0082387F8433048E08B
:10539800102387F8433044E0202387F8433040E067
:1053A800402387F843303CE0802387F8433038E0D7
:1053B8007B691B685B4A934230D1574B9B6D03F066
:1053C8000703052B26D801A252F823F0ED53000855
:1053D800F5530008FD530008055400080D54000853
:1053E80015540008022387F843301AE0042387F88D
:1053F800433016E0082387F8433012E0102387F87B
:1054080043300EE0202387F843300AE0402387F832
:10541800433006E0802387F8433002E0802387F892
:1054280043307B691B683F4A934240F0F88097F805
:105438004330202B46DC022BC0F28280023B1E2B1D
:105448007ED801A252F823F0D35400084955000829
:10545800DB5400084955000849550008495500081B
:10546800EB540008495500084955000849550008FB
:10547800495500084955000849550008495500088C
:10548800FB540008495500084955000849550008CB
:10549800495500084955000849550008495500086C
:1054A800495500084955000849550008495500085C
:1054B800495500084955000849550008495500084C
:1054C8003B550008402B37D03AE0FEF711FCF86353
:1054D8003CE007F124031846FEF720FCBB6AFB6397
:1054E80034E007F118031846FEF76CFDFB69FB630F
:1054F8002CE0094B1B6803F02003002B16D0064B49
:105508001B68DB0803F00303074A22FA03F3FB6373
:105518001CE000BF0014014000440258007800401D
:10552800007C0040000C00580090D0039D4BFB63AA
:105538000CE09D4BFB6309E04FF40043FB6305E07F
:105548000023FB63012387F8423000BFFB6B002B6D
:1055580000F0DE817B695B6A944A32F813301A46A0
:10556800FB6BB3FBF2F33B637B695A6813465B0042
:1055780013443A6B9A4205D37B695B681B033A6B09
:105588009A4203D9012387F84230C1E1FB6B00221C
:10559800BB60FA607B695B6A844A32F813309BB25D
:1055A80000223B607A60D7E90023D7E90201FAF7C5
:1055B8008FFE02460B46104619464FF000024FF088
:1055C80000030B0243EA106302027969496849083B
:1055D80000200C46054612EB040843EB05097B69DD
:1055E8005B6800229A46934652465B4640464946C7
:1055F800FAF76EFE02460B461346BB63BB6BB3F568
:10560800407F08D3BB6BB3F5801F04D27B691B684E
:10561800BA6BDA607CE1012387F8423078E17B6974
:10562800DB69B3F5004F40F0C58097F84330202B75
:1056380048DC002B7BDB202B79D801A252F823F021
:10564800D3560008DB5600083757000837570008BC
:10565800E35600083757000837570008375700083F
:10566800F35600083757000837570008375700081F
:1056780037570008375700083757000837570008CA
:1056880003570008375700083757000837570008EE
:1056980037570008375700083757000837570008AA
:1056A800375700083757000837570008375700089A
:1056B800375700083757000837570008375700088A
:1056C80029570008402B2ED031E0FDF79FFBF863E7
:1056D80033E0FDF7B1FBF8632FE007F12403184628
:1056E800FEF71CFBBB6AFB6327E007F118031846AB
:1056F800FEF768FCFB69FB631FE02D4B1B6803F09A
:105708002003002B09D02A4B1B68DB0803F0030396
:10571800244A22FA03F3FB630FE0224BFB630CE0FD
:10572800214BFB6309E04FF40043FB6305E00023D2
:10573800FB63012387F8423000BFFB6B002B00F0AE
:10574800E7807B695B6A194A32F813301A46FB6BAB
:10575800B3FBF2F35A007B695B685B081A447B6908
:105768005B68B2FBF3F3BB63BB6B0F2B16D9BB6B48
:10577800B3F5803F12D2BB6B9BB223F00F03FB86BD
:10578800BB6B5B089BB203F007039AB2FB8E134313
:10579800FB867B691B68FA8EDA60B9E0012387F81B
:1057A8004230B5E00090D00300093D00E0600008F9
:1057B8000044025897F84330202B49DC002B7CDB4F
:1057C800202B7AD801A252F823F000BF5F580008B6
:1057D80067580008C3580008C35800086F580008E5
:1057E800C3580008C3580008C35800087F58000869
:1057F800C3580008C3580008C3580008C358000815
:10580800C3580008C3580008C35800088F58000838
:10581800C3580008C3580008C3580008C3580008F4
:10582800C3580008C3580008C3580008C3580008E4
:10583800C3580008C3580008C3580008C3580008D4
:10584800C3580008C3580008C3580008B5580008D2
:10585800402B2ED031E0FDF7D9FAF86333E0FDF79D
:10586800EBFAF8632FE007F124031846FEF756FA1F
:10587800BB6AFB6327E007F118031846FEF7A2FB93
:10588800FB69FB631FE02D4B1B6803F02003002B13
:1058980009D02A4B1B68DB0803F00303284A22FAC5
:1058A80003F3FB630FE0264BFB630CE0254BFB6324
:1058B80009E04FF40043FB6305E00023FB63012389
:1058C80087F8423000BFFB6B002B21D07B695B6AF5
:1058D8001D4A32F813301A46FB6BB3FBF2F27B69B0
:1058E8005B685B081A447B695B68B2FBF3F3BB63D4
:1058F800BB6B0F2B09D9BB6BB3F5803F05D2BB6BD4
:105908009AB27B691B68DA6002E0012387F84230AB
:105918007B690122A3F86A207B690122A3F8682029
:105928007B6900221A677B6900225A6797F8423020
:1059380018464837BD46BDE8B08F00BF004402583E
:105948000090D00300093D00E060000880B483B0F7
:1059580000AF78607B689B6A03F00103002B0AD0D4
:105968007B681B685B6823F400317B68DA6A7B68B4
:105978001B680A435A607B689B6A03F00203002B8A
:105988000AD07B681B685B6823F480317B681A6BDC
:105998007B681B680A435A607B689B6A03F00403B0
:1059A800002B0AD07B681B685B6823F480217B6826
:1059B8005A6B7B681B680A435A607B689B6A03F0D2
:1059C8000803002B0AD07B681B685B6823F400413E
:1059D8007B689A6B7B681B680A435A607B689B6A82
:1059E80003F01003002B0AD07B681B689B6823F424
:1059F80080517B68DA6B7B681B680A439A607B6816
:105A08009B6A03F02003002B0AD07B681B689B6805
:105A180023F400517B681A6C7B681B680A439A6000
:105A28007B689B6A03F04003002B1AD07B681B68D5
:105A38005B6823F480117B685A6C7B681B680A4397
:105A48005A607B685B6CB3F5801F0AD17B681B6862
:105A58005B6823F4C0017B689A6C7B681B680A4307
:105A68005A607B689B6A03F08003002B0AD07B682E
:105A78001B685B6823F400217B68DA6C7B681B6811
:105A88000A435A6000BF0C37BD465DF8047B704777
:105A980080B586B002AF78607B680022C3F88C209E
:105AA800FBF78CF9F8607B681B681B6803F0080338
:105AB800082B0ED16FF07E430093FB6800224FF451
:105AC8000011786800F02FF80346002B01D003235B
